:020000040000FA
:06000000A2EF0DF012005A
:020006001200E6
:06000800D4EF04F0120029
:060018008BEF05F0120061
:02001E000100DF
:0C002000601B0000800000002E000000AB
:04002C00D9CFE6FF43
:10003000E1CFD9FF0B0EE126DE6ADD6ADECF63F089
:10004000DDCF64F0D890645004E6040E635C000ECB
:10005000645820E2DECFE9FFDDCFEAFF460EE92655
:10006000000EEA22EF6ADECFE9FFDDCFEAFFB40E31
:10007000E926000EEA22EF6ADECFE9FFDDCFEAFFD4
:10008000B00EE926000EEA22EF6ADF2A010E01E334
:10009000DB2AD4D7000EF36E080EF3CFDBFF100E71
:1000A000F36E090EF3CFDBFF200EF36E0A0EF3CFD3
:1000B000DBFF020EDB6A030EDB6A020EDBCF63F0AE
:1000C000030EDBCF64F0D890645004E6100E635C3E
:1000D000000E645801E37AD0080EDB50656E666A44
:1000E000020EDB506524636E030EDB506620646EE7
:1000F00063C0E6FF64C0E6FF80EC0BF0E552E5521A
:10010000E66E020EDBCFE9FF030EDBCFEAFF880EBF
:10011000E926000EEA22E552E750EF6E090EDB50A9
:10012000656E666A020EDB506524636E030EDB505B
:100130006620646E63C0E6FF64C0E6FF80EC0BF0EF
:10014000E552E552E66E020EDBCFE9FF030EDBCF90
:10015000EAFF980EE926000EEA22E552E750EF6E1C
:10016000020EDBCF63F0030EDBCF64F0D890645057
:1001700004E6060E635C000E645822E20A0EDB50B1
:10018000656E666A020EDB506524636E030EDB50FB
:100190006620646E63C0E6FF64C0E6FF80EC0BF08F
:1001A000E552E552E66E020EDBCFE9FF030EDBCF30
:1001B000EAFFA80EE926000EEA22E552E750EF6EAC
:1001C000020EDB2A030E01E3DB2A77D7526A0F0EF9
:1001D000C16EC00ED56EF184910ECD6E9F80910ED2
:1001E000B16EA2827F0ECA6E9F929D82C80E506E23
:1001F000516AC80E4E6E4F6A9F8A4F0EE66EE66ACF
:100200007C0EE66E18EC0DF0E552E552E552816A7F
:10021000070E936E836A956A806AF00E926EDBEC2D
:1002200006F0F288F086F08CF088F08EF19CF19A5E
:10023000F198D08EF28CF28E818EE80EE66E030E6F
:10024000E66E68EC06F0E552E552819E020EDB6A2E
:10025000030EDB6A020EDBCF63F0030EDBCF64F02C
:10026000D890645004E6100E635C000E64581FE2E0
:10027000010EE66E020EDBCFE6FFA2EC05F0E552C2
:10028000E5525E0EE66E010EE66E68EC06F0E55293
:10029000E552E66A020EDBCFE6FFA2EC05F0E5527E
:1002A000E552020EDB2A030E01E3DB2AD3D70F0E41
:1002B000F36E020EF3CFDBFF030EDB6A020EDBCF21
:1002C00063F0030EDBCF64F0643404E26350000893
:1002D000000E64542FE2010EE66E020EDBCF63F0D7
:1002E000030EDBCF64F06306000E645A6350E66EC3
:1002F000A2EC05F0E552E5525E0EE66E010EE66EEA
:1003000068EC06F0E552E552E66A020EDBCF63F0D8
:10031000030EDBCF64F06306000E645A6350E66E92
:10032000A2EC05F0E552E552020EDB06030E01E2F7
:10033000DB06C4D7020EDB6A030EDB6A0F0EF36E18
:10034000040EF3CFDBFF050EDB6A020EDBCF63F09A
:10035000030EDBCF64F0D890645004E6080E635CB3
:10036000000E645831E2010EE66E020EDBCFE6FFAE
:10037000E9DBE552E552010EE66E040EDBCFE6FF47
:10038000E1DBE552E5525E0EE66E010EE66E68ECCC
:1003900006F0E552E552E66A020EDBCFE6FFD2DB5D
:1003A000E552E552E66A040EDBCFE6FFCBDBE55211
:1003B000E552020EDB2A030E01E3DB2A040EDB0604
:1003C000050E01E2DB06C1D7080EF36E020EF3CF75
:1003D000DBFF030EDB6A080EF36E040EF3CFDBFFC8
:1003E000050EDB6A020EDBCF63F0030EDBCF64F099
:1003F000643404E263500008000E645441E2010ECC
:10040000E66E020EDBCF63F0030EDBCF64F0630613
:10041000000E645A6350E66E95DBE552E552010E1C
:10042000E66E040EDBCFE6FF8DDBE552E5525E0E95
:10043000E66E010EE66E68EC06F0E552E552E66AFD
:10044000020EDBCF63F0030EDBCF64F06306000E19
:10045000645A6350E66E76DBE552E552E66A040EB6
:10046000DBCFE6FF6FDBE552E552020EDB06030E43
:1004700001E2DB06040EDB2A050E01E3DB2AB2D71C
:1004800025EC0CF0DE6ADD6ADECF63F0DDCF64F0D0
:10049000D890645004E6040E635C000E645801E3D7
:1004A0009DD1DECFE9FFDDCFEAFFD890E936EA360D
:1004B000800EE926000EEA22EECFAEF0EDCFAFF0CF
:1004C0000001BA6B4B6A4C6AE00E4D6E04004B5053
:1004D0004C104D1001E177D14B2A000E4C22000E3A
:1004E0004D22DECFE9FFDDCFEAFFB40EE926000E94
:1004F000EA22EFCF63F0DECFE9FFDDCFEAFF460E61
:10050000E926000EEA22EF50635C01E153D1DECF11
:10051000E9FFDDCFEAFFB40EE926000EEA22EF5034
:100520000001EA6AAE25E96EAF51EA22EF504A6E49
:10053000DECFE9FFDDCFEAFFB40EE926000EEA22A6
:10054000EF2ADECFE9FFDDCFEAFFB40EE926000E89
:10055000EA22EF50100809E1DECFE9FFDDCFEAFF24
:10056000B40EE926000EEA22EF6A4AAE62D0F80E17
:100570004A5C06E34A50E66EC6EC06F0E55254D0FB
:100580000F0E4A14EA6A980FE96E000EEA22EF5045
:10059000E66ED950060FE96EDACFEAFFE552E75072
:1005A000EE6EED6AF00E4A14656E666A060EDB505A
:1005B0006510636E070EDB506610646E63504A6E02
:1005C000DECFE9FFDDCFEAFFB00EE926000EEA221A
:1005D0004AC0EFFFDECFE9FFDDCFEAFFB00EE9262C
:1005E000000EEA22EFCF63F0A00E635C13E34A38FB
:1005F0000F0BF60F0001B86F0001B851EA6AA80F9F
:10060000E96E000EEA22EF0404E14A50E66EBEDB1A
:10061000E55204D04A50E66EB9DBE5524A50E66E28
:1006200098D9E5520001BA6F4B6A4C6AE00E4D6EE4
:10063000C0D0DECFE9FFDDCFEAFFB00EE926000E25
:10064000EA22EF50F00805E14A50E66E9FDBE552E2
:100650004DD00001BA514AE1DECFE9FFDDCFEAFF1C
:10066000B00EE926000EEA22EF50E66E72D9E5528E
:100670000001BA6FDECFE9FFDDCFEAFFB00EE92659
:10068000000EEA22EFCF63F0A00E635C23E3DECF1F
:10069000E9FFDDCFEAFFB00EE926000EEA22EF38CF
:1006A0000F0BF60F0001B86F0001B851EA6AA80FEE
:1006B000E96E000EEA22EF040CE1DECFE9FFDDCFA8
:1006C000EAFFB00EE926000EEA22EF50E66E5EDB8E
:1006D000E5520CD0DECFE9FFDDCFEAFFB00EE92610
:1006E000000EEA22EF50E66E51DBE5520001BA0738
:1006F000DECFE9FFDDCFEAFFB00EE926000EEA22E9
:10070000EFCF63F0A00E635C1BE3DECFE9FFDDCF2C
:10071000EAFFB00EE926000EEA22EF380F0BF60FC3
:100720000001B86F0001B851EA6AA80FE96E000E27
:10073000EA22EF0404E14A50E66E28DBE55235D0A8
:10074000DECFE9FFDDCFEAFFB00EE926000EEA2298
:10075000EF500F0B0001B96FDECFE9FFDDCFEAFFED
:10076000B00EE926000EEA22EF50900B900819E136
:100770000001BA5116E10001B951EA6A880FE96E29
:10078000000EEA22EFCF63F04A50D880635409E2AA
:100790000001B951EA6A880FE96E000EEA22EF50B3
:1007A0004A6E4A50E66EF2DAE5524B6A4C6AE00E47
:1007B0004D6E08D00001BA5104E14B6A4C6A4D6A93
:1007C00001D0040084D60001BA5103E0E668DEDA05
:1007D000E552DF2A010E01E3DB2A56D644DBFF088F
:1007E00002E0A3DBDBDB4ED60B0EE15C02E2E16A4A
:1007F000E552E16EE552E7CFD9FF1200D9CFE6FF0F
:10080000E1CFD9FF020EE126FE0EDB500F0BE76EA3
:10081000010EE7CFDBFF525001E091D0FE0EDB501E
:10082000900BDF6E900EDF5C44E1010EDB500F0A8F
:100830003DE0010A39E0030A35E0010A31E0070A28
:100840002DE0010A29E0030A25E0010A21E00F0A50
:100850001DE0010A19E0030A15E0010A11E0070A88
:100860000DE0010A09E0030A05E0010A01E020D0D9
:1008700080801ED080821CD080841AD0808618D0C0
:10088000818616D0818814D0818A12D0818C10D0B4
:1008900083800ED083820CD083840AD0838608D0D4
:1008A000838806D0838A04D0838C02D0838E00D0C4
:1008B00046D0800EDF5C43E1010EDB500F0A3DE0C5
:1008C000010A39E0030A35E0010A31E0070A2DE0A8
:1008D000010A29E0030A25E0010A21E00F0A1DE0D0
:1008E000010A19E0030A15E0010A11E0070A0DE008
:1008F000010A09E0030A05E0010A01E020D0809026
:100900001ED080921CD080941AD0809618D08196E8
:1009100016D0819814D0819A12D0819C10D08390E7
:100920000ED083920CD083940AD0839608D08398FB
:1009300006D0839A04D0839C02D0839E00D0020EFE
:10094000E15C02E2E16AE552E16EE552E7CFD9FFF0
:100950001200D9CFE6FFE1CFD9FFFE0EDB50F20A3D
:1009600019E0020A15E0010A13E0FE0EDB50F00B5D
:10097000C00A14E0100A12E0500A0EE0100A0CE05F
:10098000300A0AE0100A08E0500A06E0000E08D01B
:10099000010E06D0020E04D0020E02D0010E00D0CD
:1009A000E552E7CFD9FF1200DACFE4FFE2CFDAFF5A
:1009B000E9CFE4FFEACFE4FFE652F250100B0CE07F
:1009C000F250020B09E0F298F292080E406E436A70
:1009D000300ED66EF294F28AF050080B0DE0F05013
:1009E000010B0AE0F096F090080E416E446ACF6861
:1009F000300ECE6E9E909D80F050100B0DE0F050AA
:100A0000020B0AE0F098F092080E426E456AB36855
:100A10003A0EB26EA192A082F250200B1EE0F2506C
:100A2000040B1BE0F294818E6C0ED66E434281B0B3
:100A3000438E819E402E2DEF05F04650EA6A000F4E
:100A4000E96E000EEA2243C0EFFF462A100E465C14
:100A500001E1466AF292F288F29A9D50010B20E081
:100A60009E50010B1DE09E90818EFF0ECF6E700E8A
:100A7000CE6E444281B2448E819E412E50EF05F0ED
:100A80004750EA6A100FE96E000EEA2244C0EFFFF9
:100A9000472A100E475C01E1476AF090F0869D906E
:100AA000A050020B20E0A150020B1DE0A192818E0C
:100AB000FF0EB36E7A0EB26E454281B4458E819EB2
:100AC000422E73EF05F04850EA6A200FE96E000EDF
:100AD000EA2245C0EFFF482A100E485C01E1486A4F
:100AE000F092F088A0929EAA0ED09E9A4950EA6A8F
:100AF000300FE96E000EEA22AECFEFFF492A100E4A
:100B0000495C01E1496AE552E5CFEAFFE5CFE9FF3B
:100B1000E5CFDAFF1100DACFE4FFE2CFDAFFE652E9
:100B20009EA20CD09E924E06000E4F5A4E504F1071
:100B300005E150C04EF051C04FF08A7EE552E5CF3E
:100B4000DAFF1100D9CFE6FFE1CFD9FFFE0EDB506F
:100B50000F0A01E189D0010A01E17FD0030A76E0A2
:100B6000010A6DE0070A64E0010A5BE0030A52E053
:100B7000010A49E00F0A40E0010A37E0030A2EE0CB
:100B8000010A25E0070A1CE0010A13E0030A0AE053
:100B9000010A01E070D0FD0EDB50E8B08080E8A0D3
:100BA000809069D0FD0EDB50E8B08082E8A0809292
:100BB00062D0FD0EDB50E8B08084E8A080945BD06A
:100BC000FD0EDB50E8B08086E8A0809654D0FD0E84
:100BD000DB50E8B08186E8A081964DD0FD0EDB5059
:100BE000E8B08188E8A0819846D0FD0EDB50E8B0DF
:100BF000818AE8A0819A3FD0FD0EDB50E8B0818C5D
:100C0000E8A0819C38D0FD0EDB50E8B08380E8A0DE
:100C1000839031D0FD0EDB50E8B08382E8A0839250
:100C20002AD0FD0EDB50E8B08384E8A0839423D063
:100C3000FD0EDB50E8B08386E8A083961CD0FD0E45
:100C4000DB50E8B08388E8A0839815D0FD0EDB5018
:100C5000E8B0838AE8A0839A0ED0FD0EDB50E8B09E
:100C6000838CE8A0839C07D0FD0EDB50E8B0838E18
:100C7000E8A0839E00D0E552E7CFD9FF1200D9CF7C
:100C8000E6FFE1CFD9FF020EE126DE6ADD6ADECFA4
:100C900063F0DDCF64F0D890645004E6100E635C1E
:100CA000000E64580BE2E66ADFCFE6FF4BDFE55249
:100CB000E552DF2A010E01E3DB2AE9D7020EE15CEF
:100CC00002E2E16AE552E16EE552E7CFD9FF120098
:100CD000D9CFE6FFE1CFD9FF020EE126DE6ADD6A59
:100CE000DECF63F0DDCF64F0FD0EDBCF65F0FE0EEE
:100CF000DBCF66F064506618E8AE02D0663404D0EC
:100D00006550635C665064580AE2020EE66E82EC3F
:100D10000DF0E552DF2A010E01E3DB2AE1D7020ED6
:100D2000E15C02E2E16AE552E16EE552E7CFD9FF0C
:100D30001200D9CFE6FFE1CFD9FF020EE126DE6A2D
:100D4000DD6ADECF63F0DDCF64F0FD0EDBCF65F052
:100D5000FE0EDBCF66F064506618E8AE02D0663453
:100D600004D06550635C6650645806E20000DF2AD8
:100D7000010E01E3DB2AE5D7020EE15C02E2E16A43
:100D8000E552E16EE552E7CFD9FF1200D9CFE6FF79
:100D9000E1CFD9FFACA2FED7FE0EDBCFE6FF55ECCC
:100DA0000DF0E552FE0EDBCFE6FF28DDE552E55201
:100DB000E7CFD9FF1200829082928294849494901B
:100DC000949294949694928A928896829680120035
:100DD000D9CFE6FFE1CFD9FFFE0EDB50040A3DE09C
:100DE0000C0A39E0040A35E01C0A31E0130A2DE050
:100DF000040A29E00C0A25E0040A21E00D0A1DE09E
:100E0000040A19E00C0A15E0040A11E00F0A0DE0CB
:100E1000040A09E00C0A05E0040A01E020D0000EF3
:100E20001ED0010E1CD0020E1AD0030E18D0040ED4
:100E300016D0050E14D0060E12D0070E10D0080ED4
:100E40000ED0090E0CD00A0E0AD00B0E08D00C0ED4
:100E500006D00D0E04D00E0E02D00F0E00D0E552BB
:100E6000E7CFD9FF1200D9CFE6FFE1CFD9FFE65295
:100E70000001BB6BDF6A040EDF5C39E2DF50030A5E
:100E800016E0010A0FE0030A08E0010A01E014D0AD
:100E900082908282828484840FD082808292828433
:100EA00084840AD0828082828294848405D0828065
:100EB00082828284849400D084B003D0BB2BBB5147
:100EC00019D084B204D0020EBB27BB5113D080B816
:100ED00004D0030EBB27BB510DD080BA04D0040E42
:100EE000BB27BB5107D0040EBB27DF2AC4D7BB6981
:100EF000BB5100D0E552E552E7CFD9FF12004EC0FA
:100F000063F04FC064F0030E5E6E5F6A63C059F019
:100F100064C05AF06CEC0DF055C063F056C064F03C
:100F20006350641001E0EBD71200D9CFE6FFE1CFA8
:100F3000D9FFE65298DFDF6EFF0EDF5C0BE1DFDFEB
:100F400092DFDF6EFF0EDF5C05E1DFCFBCF000015A
:100F5000BC511FD0D4DF87DFDF6EFF0EDF5C05E101
:100F6000DFCFBCF00001BC5114D0DFCFBCF07BDF81
:100F7000DF6EFF0EDF5C03E076DFDF6EFAD7BFDFE8
:100F800072DFDF6EFF0EDF5C01E0F1D70001BC51C4
:100F900000D0E552E552E7CFD9FF1200BCC0E6FF12
:100FA00017DFE5520001BE6FBE510F0A45E0010A8E
:100FB00040E0030A36E0010A2CE0070A22E0010AB9
:100FC00018E00A0A13E0010A11E0030A0FE0010A1F
:100FD0000DE0070A0BE0010A09E0030A07E0010A35
:100FE00005E00F0A03E0010A01E029D0010EBD6F00
:100FF00026D0030EBD6F525003E1522A89D9520602
:101000001ED0040EBD6F525003E1522AB0D95206D1
:1010100016D0020EBD6F525003E1522A4FD952062C
:101020000ED0070EBD6F525003E1522A2EDA52063F
:1010300006D0050EBD6F03D0060EBD6F00D01200A6
:10104000D9CFE6FFE1CFD9FF020EE1260CDFFF0882
:1010500069E1FE0EDB502CE1DE6ADD6ADECF63F073
:10106000DDCF64F0D890645004E6100E635C000E8F
:1010700064581DE2010EE66EDFCFE6FF63DDE55248
:10108000E5525E0EE66E010EE66E22DEE552E55298
:10109000E66ADFCFE6FF56DDE552E552E4DEFF0803
:1010A00001E005D0DF2A010E01E3DB2AD7D739D0D2
:1010B0000F0EDE6EDD6ADECF63F0DDCF64F06434E8
:1010C00004E263500008000E64542BE2010EE66E49
:1010D000DECF63F0DDCF64F06306000E645A635028
:1010E000E66E30DDE552E5525E0EE66E010EE66E0E
:1010F000EFDDE552E552E66ADECF63F0DDCF64F066
:101100006306000E645A6350E66E1CDDE552E5523C
:10111000AADEFF0801E005D0DF06010E01E2DB06D2
:10112000CAD794D7020EE15C02E2E16AE552E16EB1
:10113000E552E7CFD9FF1200D9CFE6FFE1CFD9FFC3
:10114000E65291DEFF0820E10A0EDF6E100EDF5C32
:101150001AE2010EE66EDFCFE6FFF4DCE552E5525F
:101160005E0EE66E010EE66EB3DDE552E552E66A0E
:10117000DFCFE6FFE7DCE552E55275DEFF0801E070
:1011800002D0DF2AE3D7DDD7E552E552E7CFD9FF1A
:101190001200D9CFE6FFE1CFD9FFE65264DEFF08A7
:1011A0001FE1DF6A020EDF5C1AE2010EE66EDFCF9E
:1011B000E6FFC8DCE552E5525E0EE66E010EE66E15
:1011C00087DDE552E552E66ADFCFE6FFBBDCE5529C
:1011D000E55249DEFF0801E002D0DF2AE3D7DED77F
:1011E000E552E552E7CFD9FF1200D9CFE6FFE1CFB4
:1011F000D9FFE65238DEFF081FE1DF6A0A0EDF5C26
:101200001AE2010EE66EDFCFE6FF9CDCE552E55206
:101210005E0EE66E010EE66E5BDDE552E552E66AB5
:10122000DFCFE6FF8FDCE552E5521DDEFF0801E06F
:1012300002D0DF2AE3D7DED7E552E552E7CFD9FF68
:101240001200D9CFE6FFE1CFD9FFE652CEDF6DDE47
:10125000A5DE0001BD0503E0000E2BD002D0BEC00C
:10126000DFFFC3DF62DE9ADE0001BD0503E0000E92
:1012700020D006D00A0EDF02F3CFDFFFBE51DF26FB
:10128000B4DF53DE8BDE0001BD0503E0000E11D09C
:1012900006D00A0EDF02F3CFDFFFBE51DF26FD0EC0
:1012A000DBCFE9FFFE0EDBCFEAFFDFCFEFFF010E62
:1012B00000D0E552E552E7CFD9FF1200D9CFE6FFC3
:1012C000E1CFD9FF040EE12648D9E66AB9DEE5523E
:1012D0002CDE64DE010EBEC0DBFFE66EB1DEE55241
:1012E00024DE5CDEBEC0DFFF010EDB50EA6A980F31
:1012F000E96E000EEA22DFCFEFFF29D9040EE15C90
:1013000002E2E16AE552E16EE552E7CFD9FF120051
:10131000D9CFE6FFE1CFD9FF020EE1261ED90CDFBF
:1013200004DE3CDE0A0E0001BE5D03E210D915D0DA
:1013300013D00A0EBE5DDF6E2CDFF7DD2FDE00015D
:10134000BE5102E0BE0508E1DF50EA6AA80FE96E6F
:10135000000EEA22BEC0EFFFFAD8020EE15C02E204
:10136000E16AE552E16EE552E7CFD9FF1200D9CF2D
:10137000E6FFE1CFD9FF080EE126EFD8010EE66EB9
:101380005FDEE552D2DD0ADE010EBEC0DBFFDB50C0
:10139000020A53E0030A25E0010A01E06BD0F00ED7
:1013A000E66EF4DCE552430EE66EF0DCE552100E1C
:1013B000E66EECDCE5524C0EE66EE8DCE552E66AE1
:1013C000E5DCE552E66AE2DCE5527E0EE66EDEDC46
:1013D000E552E66ADBDCE552F70EE66ED7DCE55255
:1013E00049D0E66A2DDEE552A0DDD8DDBEC0DFFFC4
:1013F000D950020FE66E000EDA20E66E22DFE552CB
:10140000E552000919E0B00EDF24E66EBFDCE552BC
:10141000E66ABCDCE552E66AB9DCE552B00EDF24D0
:10142000E66EB4DCE552200EE66EB0DCE552020E4C
:10143000DBCFE6FFABDCE5521DD0E66A01DEE5520C
:1014400074DDACDDBEC0DFFFD950030FE66E000EC9
:10145000DA20E66EF6DEE552E55200090AE0C00E3B
:10146000DF24E66E93DCE552030EDBCFE6FF8EDC75
:10147000E55200D06CD8080EE15C02E2E16AE55268
:10148000E16EE552E7CFD9FF1200D9CFE6FFE1CFF9
:10149000D9FF020EE12661D8E66AD2DDE55245DDCC
:1014A0007DDDBEC0DFFFA1DE40DD78DD0001BD05D2
:1014B00003E04DD842D003D0010EBEC0DBFF95DE65
:1014C00034DD6CDD0001BD0503E041D836D011D01C
:1014D0000A0E636E010EDBCFE7FF6350E702010ED9
:1014E000F3CFDBFFDBCFE7FFBE51E726010EE7CFEF
:1014F000DBFF7BDE1ADD52DD0001BD0503E027D8EE
:101500001CD01AD00A0E636E010EDBCFE7FF6350CA
:10151000E702010EF3CFDBFFDBCFE7FFBE51E7268B
:10152000010EE7CFDBFFDF50EA6A880FE96E000E9D
:10153000EA22010EDBCFEFFF0AD8020EE15C02E2E5
:10154000E16AE552E16EE552E7CFD9FF1200C80E1D
:10155000506E516A4E6E4F6A1200320E506E516AD2
:101560004E6E4F6A3FEF06F0D9CFE6FFE1CFD9FFCD
:10157000030EE126FF0EE76EFD0EDBCF63F0FE0EDD
:10158000DBCF64F0E7506316646A6350A96EFC0E0B
:10159000DB50A86EA69EA69CA684020EF2CFDBFFAF
:1015A000F29EF29C550EA76EAA0EA76EA682A69476
:1015B000020EDB50C00BDE6EDD6AF250656E666AAD
:1015C000DE506510636EDD506610646E6350F26E1F
:1015D000A6B2FED7030EE15C02E2E16AE552E16EDB
:1015E000E552E7CFD9FF1200D9CFE6FFE1CFD9FF0F
:1015F000030EE126D9CFE9FFDACFEAFFFA0EDBCFFF
:10160000EEFFFB0EDBCFEEFFFC0EDBCFEEFFDFCFFE
:10161000E6FFFD0EDBCFE6FFFE0EDBCFE6FFA4DF2D
:10162000E552E552E552010EDBCFE6FFE76EFD0E17
:10163000DBCF63F0FE0EDBCF64F0E7506326000ED5
:10164000642263C0E6FF64C0E6FF8EDFE552E55228
:10165000E552020EDBCFE6FFE76EFD0EDBCF63F057
:10166000FE0EDBCF64F0E7506326000E642263C0F9
:10167000E6FF64C0E6FF78DFE552E552E552030E6F
:10168000E15C02E2E16AE552E16EE552E7CFD9FFA3
:101690001200D9CFE6FFE1CFD9FF020EE126FB0E03
:1016A000DBCFDEFFDBCFDDFFDFCFE6FFFD0EDBCFE5
:1016B000E6FFFE0EDBCFE6FF57DFE552E552E552CF
:1016C000010EDBCFE6FFE76EFD0EDBCF63F0FE0E13
:1016D000DBCF64F0E7506326000E642263C0E6FFB0
:1016E00064C0E6FF41DFE552E552E552020EE15CDF
:1016F00002E2E16AE552E16EE552E7CFD9FF12005E
:10170000D9CFE6FFE1CFD9FFE652FD0EDB50A96E3F
:10171000A69EA69CA680A850DF6EDF5000D0E552A2
:10172000E552E7CFD9FF1200D9CFE6FFE1CFD9FFCD
:10173000030EE126FD0EDBCFE6FFFE0EDBCFE6FF5C
:10174000DFDFE552E552DF6E010EE76EFD0EDBCF07
:1017500063F0FE0EDBCF64F0E7506326000E6422D8
:1017600063C0E6FF64C0E6FFCBDFE552E552E76EFB
:10177000010EE7CFDBFF020EE76EFD0EDBCF63F05D
:10178000FE0EDBCF64F0E7506326000E642263C0D8
:10179000E6FF64C0E6FFB4DFE552E552E76E020EF5
:1017A000E7CFDBFFDFCF63F0010EDBCF64F0020E8B
:1017B000DBCF65F063C058F064C059F065C05AF0E3
:1017C000030EE15C03E200D0E16AE552E16EE5520E
:1017D000E7CFD9FF1200D9CFE6FFE1CFD9FF020E44
:1017E000E126FD0EDBCFE6FFFE0EDBCFE6FF88DF56
:1017F000E552E552DF6E010EE76EFD0EDBCF63F0C2
:10180000FE0EDBCF64F0E7506326000E642263C057
:10181000E6FF64C0E6FF74DFE552E552E76E010EB5
:10182000E7CFDBFFDECF63F0DDCF64F063C0F3FF13
:1018300064C0F4FF020EE15C03E200D0E16AE5520D
:10184000E16EE552E7CFD9FF1200D9CFE6FFE1CF35
:10185000D9FF020EE126920EE66EC6EC06F0E552C6
:10186000300EE66EC6EC06F0E5527F0EE66EC6EC74
:1018700006F0E552E80EE66E030EE66E68EC06F042
:10188000E552E552820EE66EC6EC06F0E552300EE9
:10189000E66EC6EC06F0E552E66AC6EC06F0E552E6
:1018A000920EE66EC6EC06F0E552300EE66EC6EC21
:1018B00006F0E5527F0EE66EC6EC06F0E552E80E45
:1018C000E66E030EE66E68EC06F0E552E552820E17
:1018D000E66EC6EC06F0E552300EE66EC6EC06F09B
:1018E000E552E66AC6EC06F0E552920EE66EC6ECEC
:1018F00006F0E552300EE66EC6EC06F0E5527F0EBD
:10190000E66EC6EC06F0E552E80EE66E030EE66EF5
:1019100068EC06F0E552E552820EE66EC6EC06F083
:10192000E552300EE66EC6EC06F0E552E66AC6EC0D
:1019300006F0E552920EE66EC6EC06F0E552300E69
:10194000E66EC6EC06F0E5527F0EE66EC6EC06F0DB
:10195000E552E80EE66E030EE66E68EC06F0E55220
:10196000E552820EE66EC6EC06F0E552300EE66EEB
:10197000C6EC06F0E552E66AC6EC06F0E552020E49
:10198000E15C02E2E16AE552E16EE552E7CFD9FFA0
:02199000120043
:0E1992001E0EF66E000EF76E000EF86E0001CF
:1019A0000900F550C46F0900F550C56F03E1C46725
:1019B00001D03DD00900F550BF6F0900F550C06F50
:1019C0000900F550C16F09000900F550E96E0900E2
:1019D000F550EA6E090009000900F550C26F0900D0
:1019E000F550C36F09000900F6CFC6F0F7CFC7F076
:1019F000F8CFC8F0BFC0F6FFC0C0F7FFC1C0F8FF06
:101A00000001C25302E1C35307E00900F550EE6E36
:101A1000C207F8E2C307F9D7C6C0F6FFC7C0F7FF91
:101A2000C8C0F8FF0001C407000EC55BBFD7120095
:101A3000D9CFE6FFDACFE6FFE1CFD9FFE2CFDAFF79
:101A4000AC6AAB6AFD0EDBB0AC88DBA202D0AC8C1A
:101A5000AB8CDBB4AC8EDBA602D0AB8801D0AB8AFA
:101A6000DBA802D0AC8401D0AC949E98DBAC02D051
:101A70009D8A01D09D9A9E9ADBAE02D09D8801D0AE
:101A80009D98FB0EDB50AF6EAC8AAB8E949C948E0F
:101A9000AC50100B04E0AC50800B01E1948CE5528B
:0A1AA000E5CFDAFFE7CFD9FF12000F
:061AAA00D9CFE6FFDACF00
:101AB000E6FFE1CFD9FFE2CFDAFFACAC04D0AC90C7
:101AC0000001C9B3AC80FD0EDB50AD6EE552E5CF31
:081AD000DAFFE7CFD9FF120095
:081AD800566A556A100EE76E14
:101AE000D89059365A36553656365E50555C5F504A
:101AF000565805E35E50555E5F50565A592AE72EF8
:041B0000F0D7120008
:0C1B0400FF0EE350676E480E01D04C0E3F
:101B1000E76EE72EFED7E76AE72EFED7672EF7D7E8
:041B200000001200AF
:0C1B2400000EF36E00EE00F0020E01D87F
:101B30001200EA6002D0EE6AFCD7F350E9601200AE
:041B4000EE6AFCD776
:0C1B440011EE00F021EE00F0F86A629C47
:101B5000C9EC0CF003EC00F016EC00F0FBD712001F
:101B60000000100020003000000000000000000015
:101B70000000000000000000000102030405060749
:0E1B800008090A0B0C0D0E0F010101010101F5
:020000040030CA
:01000100C638
:010002000FEE
:010003001EDE
:010005008179
:010006008079
:010008000FE8
:01000900C036
:01000A000FE6
:01000B00E014
:01000C000FE4
:01000D0040B2
:0200000400F00A
:1000000000004000000000000000000000000000B0
:100010000201020304050607080910111213141542
:06002000010101010101D4
:00000001FF
