:020000040000FA
:06000000ACEF0AF0120053
:020006001200E6
:0600080023EF04F01200DA
:02000E001200DE
:0400100012001200C8
:06001800D8EF04F0120015
:02001E000100DF
:0C00200074150000800000002E0000009D
:04002C00D9CFE6FF43
:10003000E1CFD9FF0B0EE126D38CD38AD3889290DF
:10004000020EDB6A030EDB6A020EDBCF5EF0030EEC
:10005000DBCF5FF0D8905F5004E6040E5E5C000ECC
:100060005F5827E2020EDBCFE9FF030EDBCFEAFF8A
:10007000460EE926000EEA22EF6A020EDBCFE9FF08
:10008000030EDBCFEAFFB40EE926000EEA22EF6A88
:10009000020EDBCFE9FF030EDBCFEAFFB00EE9264D
:1000A000000EEA22EF6A020EDB2A030E01E3DB2ACE
:1000B000CBD7000EF36E080EF3CFDBFF100EF36EFE
:1000C000090EF3CFDBFF200EF36E0A0EF3CFDBFF3A
:1000D000DE6ADD6ADECF5EF0DDCF5FF0D8905F5084
:1000E00004E6100E5E5C000E5F586BE2080EDB50FB
:1000F000606E616ADE5060245E6EDD5061205F6E6E
:100100005EC0E6FF5FC0E6FFFEEC06F0E552E5529A
:10011000E66EDECFE9FFDDCFEAFF880EE926000EAE
:10012000EA22E552E750EF6E090EDB50606E616A1D
:10013000DE5060245E6EDD5061205F6E5EC0E6FFC3
:100140005FC0E6FFFEEC06F0E552E552E66EDECF5C
:10015000E9FFDDCFEAFF980EE926000EEA22E5521C
:10016000E750EF6EDECF5EF0DDCF5FF0D8905F50EE
:1001700004E6060E5E5C000E5F581EE20A0EDB50BF
:10018000606E616ADE5060245E6EDD5061205F6EDD
:100190005EC0E6FF5FC0E6FFFEEC06F0E552E5520A
:1001A000E66EDECFE9FFDDCFEAFFA80EE926000EFE
:1001B000EA22E552E750EF6EDF2A010E01E3DB2A67
:1001C00089D7526A0F0EC16EC00ED56EF184910EA2
:1001D000CD6E9F80910EB16EA2827F0ECA6E9F92ED
:1001E0009D82C80E506E516AC80E4E6E4F6A9F8A2D
:1001F0000F0EE66EE66A7C0EE66E1AEC0AF0E55229
:10020000E552E552816A070E936E836A956A806AA9
:10021000F00E926EF288F086F08CF088F08EF19CF1
:10022000F19AF198D08EF28CF28EE66AE66AD5DB0E
:10023000E552E552E80EE66E030EE66EC4EC05F0FC
:10024000E552E552010EE66EE66AC7DBE552E5527D
:10025000F40EE66E010EE66EC4EC05F0E552E552D2
:10026000E66AE66ABADBE552E552F40EE66E010E86
:10027000E66EC4EC05F0E552E552010EE66EE66A64
:10028000ACDBE552E5522C0EE66E010EE66EC4ECD8
:1002900005F0E552E552E66AE66A9FDBE552E55273
:1002A000F40EE66E010EE66EC4EC05F0E552E55282
:1002B000010EE66EE66A91DBE552E552640EE66EEB
:1002C000E66AC4EC05F0E552E552E66AE66A85DBCB
:1002D000E552E552640EE66EE66AC4EC05F0E552BE
:1002E000E552010EE66EE66A78DBE552E552020E53
:1002F000DB6A030EDB6A020EDBCF5EF0030EDBCFA0
:100300005FF0D8905F5004E6040E5E5C000E5F580C
:1003100001E3C4D1020EDBCFE9FF030EDBCFEAFF1E
:10032000D890E936EA36800EE926000EEA22EECFB2
:10033000AEF0EDCFAFF00001BA6B4B6A4C6AE00E45
:100340004D6E04004B504C104D1001E19BD14B2AD7
:10035000000E4C22000E4D22020EDBCFE9FF030EF1
:10036000DBCFEAFFB40EE926000EEA22EFCF5EF003
:10037000020EDBCFE9FF030EDBCFEAFF460EE926D4
:10038000000EEA22EF505E5C01E173D1020EDBCF7A
:10039000E9FF030EDBCFEAFFB40EE926000EEA22E6
:1003A000EF500001EA6AAE25E96EAF51EA22EF5044
:1003B0004A6E020EDBCFE9FF030EDBCFEAFFB40E7D
:1003C000E926000EEA22EF2A020EDBCFE9FF030E38
:1003D000DBCFEAFFB40EE926000EEA22EF50100848
:1003E0000BE1020EDBCFE9FF030EDBCFEAFFB40E19
:1003F000E926000EEA22EF6A4AAE66D0F80E4A5CA1
:1004000006E34A50E66E22EC06F0E55258D00F0E95
:100410004A14EA6A980FE96E000EEA22EF50E66E7F
:10042000D950060FE96EDACFEAFFE552E750EE6EDB
:10043000ED6AF00E4A14606E616A060EDB506010C1
:100440005E6E070EDB5061105F6E5E504A6E020EEC
:10045000DBCFE9FF030EDBCFEAFFB00EE926000E8B
:10046000EA224AC0EFFF020EDBCFE9FF030EDBCF2B
:10047000EAFFB00EE926000EEA22EFCF5EF0A00EF2
:100480005E5C13E34A380F0BF60F0001B86F0001F2
:10049000B851EA6AA80FE96E000EEA22EF0404E1FF
:1004A0004A50E66ECFDBE55204D04A50E66ECADB16
:1004B000E5524A50E66EA1D9E5520001BA6F4B6A87
:1004C0004C6AE00E4D6ED4D0020EDBCFE9FF030E76
:1004D000DBCFEAFFB00EE926000EEA22EF50F0086B
:1004E00005E14A50E66EAEDBE55257D00001BA5145
:1004F00054E1020EDBCFE9FF030EDBCFEAFFB00EC3
:10050000E926000EEA22EF50E66E77D9E5520001A7
:10051000BA6F020EDBCFE9FF030EDBCFEAFFB00EAE
:10052000E926000EEA22EFCF5EF0A00E5E5C27E324
:10053000020EDBCFE9FF030EDBCFEAFFB00EE926A8
:10054000000EEA22EF380F0BF60F0001B86F000122
:10055000B851EA6AA80FE96E000EEA22EF040EE134
:10056000020EDBCFE9FF030EDBCFEAFFB00EE92678
:10057000000EEA22EF50E66E65DBE5520ED0020E69
:10058000DBCFE9FF030EDBCFEAFFB00EE926000E5A
:10059000EA22EF50E66E56DBE5520001BA07020E82
:1005A000DBCFE9FF030EDBCFEAFFB00EE926000E3A
:1005B000EA22EFCF5EF0A00E5E5C1DE3020EDBCF01
:1005C000E9FF030EDBCFEAFFB00EE926000EEA22B8
:1005D000EF380F0BF60F0001B86F0001B851EA6A4F
:1005E000A80FE96E000EEA22EF0404E14A50E66E1D
:1005F00029DBE55239D0020EDBCFE9FF030EDBCF5A
:10060000EAFFB00EE926000EEA22EF500F0B0001C0
:10061000B96F020EDBCFE9FF030EDBCFEAFFB00EAE
:10062000E926000EEA22EF50900B900819E1000134
:10063000BA5116E10001B951EA6A880FE96E000E5D
:10064000EA22EFCF5EF04A50D8805E5409E2000102
:10065000B951EA6A880FE96E000EEA22EF504A6E3D
:100660004A50E66EEFDAE5524B6A4C6AE00E4D6E88
:1006700008D00001BA5104E14B6A4C6A4D6A01D0BE
:10068000040060D60001BA5103E0E668DBDAE55207
:10069000020EDB2A030E01E3DB2A2DD628D60B0E31
:1006A000E15C02E2E16AE552E16EE552E7CFD9FF93
:1006B0001200D9CFE6FFE1CFD9FF020EE126FE0EF0
:1006C000DB500F0BE76E010EE7CFDBFFFE0EDB50BA
:1006D000900BDF6E900EDF5C42E1010EDB500F0AE3
:1006E0003CE0010A38E0030A34E0010A30E0070A7E
:1006F0002CE0010A28E0030A24E0010A20E00F0AA6
:100700001CE0010A18E0030A14E0010A10E0070ADD
:100710000CE0010A08E0030A04E0010A64E18080B9
:1007200062D0808260D080845ED080865CD08186FA
:100730005AD0818858D0818A56D0818C54D08380F9
:1007400052D0838250D083844ED083864CD083880D
:100750004AD0838A48D0838C46D0838E44D0800E82
:10076000DF5C41E1010EDB500F0A3CE0010A38E09A
:10077000030A34E0010A30E0070A2CE0010A28E00D
:10078000030A24E0010A20E00F0A1CE0010A18E035
:10079000030A14E0010A10E0070A0CE0010A08E06D
:1007A000030A04E0010A1FE180901DD080921BD053
:1007B000809419D0809617D0819615D0819813D047
:1007C000819A11D0819C0FD083900DD083920BD051
:1007D000839409D0839607D0839805D0839A03D059
:1007E000839C01D0839E020EE15C02E2E16AE55245
:1007F000E16EE552E7CFD9FF1200D9CFE6FFE1CF96
:10080000D9FFFE0EDB50F20A15E0020A15E0010ADC
:1008100013E0FE0EDB50F00BC00A0EE0100A0CE0F5
:10082000500A08E0100A06E0300A04E0100A02E06C
:10083000500A04E1020E03D0010E01D0000EE55271
:10084000E7CFD9FF1200DACFE4FFE2CFDAFFE9CF3A
:10085000E4FFEACFE4FFE652F250100B0BE0F25057
:10086000020B08E0F298F292080E406E436AD668D6
:10087000F294F28AF050080B0CE0F050010B09E002
:10088000F096F090080E416E446ACF68CE689E9054
:100890009D80F050100B0DE0F050020B0AE0F09834
:1008A000F092080E426E456AB3683A0EB26EA1929B
:1008B000A082F250200B1EE0F250040B1BE0F294D9
:1008C000818EFF0ED66E434281B0438E819E402EB4
:1008D0007AEF04F04650EA6A000FE96E000EEA2251
:1008E00043C0EFFF462A100E465C01E1466AF292D1
:1008F000F288F29A9D50010B20E09E50010B1DE002
:100900009E90818EFF0ECF6EE60ECE6E444281B277
:10091000448E819E412E9DEF04F04750EA6A100FED
:10092000E96E000EEA2244C0EFFF472A100E475C32
:1009300001E1476AF090F0869D90A050020B20E004
:10094000A150020B1DE0A192818EFF0EB36E7A0EB4
:10095000B26E454281B4458E819E422EC0EF04F0B6
:100960004850EA6A200FE96E000EEA2245C0EFFF08
:10097000482A100E485C01E1486AF092F088A09283
:100980009EAA0ED09E9A4950EA6A300FE96E000E78
:10099000EA22AECFEFFF492A100E495C01E1496A15
:1009A000E552E5CFEAFFE5CFE9FFE5CFDAFF110039
:1009B000DACFE4FFE6529EA20CD09E924E06000EC5
:1009C0004F5A4E504F1005E150C04EF051C04FF0FD
:1009D0008A7EE552E5CFDAFF1100D9CFE6FFE1CFFD
:1009E000D9FFFE0EDB500F0A01E19BD0010A01E1A5
:1009F00090D0030A01E185D0010A01E17AD0070A0B
:100A000001E16FD0010A65E0030A5BE0010A51E0F1
:100A10000F0A47E0010A3DE0030A33E0010A29E03A
:100A2000070A1FE0010A15E0030A0BE0010A01E0D2
:100A30007ED0FD0EDB50E8B08080E8B078D08090AA
:100A400076D0FD0EDB50E8B08082E8B070D08092A6
:100A50006ED0FD0EDB50E8B08084E8B068D08094A2
:100A600066D0FD0EDB50E8B08086E8B060D080969E
:100A70005ED0FD0EDB50E8B08186E8B058D081969C
:100A800056D0FD0EDB50E8B08188E8B050D0819898
:100A90004ED0FD0EDB50E8B0818AE8B048D0819A94
:100AA00046D0FD0EDB50E8B0818CE8B040D0819C90
:100AB0003ED0FD0EDB50E8B08380E8B038D08390A4
:100AC00036D0FD0EDB50E8B08382E8B030D08392A0
:100AD0002ED0FD0EDB50E8B08384E8B028D083949C
:100AE00026D0FD0EDB50E8B08386E8B020D0839698
:100AF0001ED0FD0EDB50E8B08388E8B018D0839894
:100B000016D0FD0EDB50E8B0838AE8B010D0839A8F
:100B10000ED0FD0EDB50E8B0838CE8B008D0839C8B
:100B200006D0FD0EDB50E8B0838EE8A0839EE55230
:100B3000E7CFD9FF1200D9CFE6FFE1CFD9FF020EF0
:100B4000E126DE6ADD6ADECF5EF0DDCF5FF0D890B1
:100B50005F5004E6100E5E5C000E5F580BE2E66A22
:100B6000DFCFE6FF3ADFE552E552DF2A010EEBE385
:100B7000DB2AE9D7020EE15C02E2E16AE552E16EAE
:100B8000E552E7CFD9FF1200D9CFE6FFE1CFD9FF79
:100B9000020EE126DE6ADD6ADECF5EF0DDCF5FF0B9
:100BA000FD0EDBCF60F0FE0EDBCF61F05F50611811
:100BB000E8AE02D0613404D060505E5C61505F5892
:100BC0000AE2020EE66E8CEC0AF0E552DF2A010E14
:100BD000E3E3DB2AE1D7020EE15C02E2E16AE552DF
:100BE000E16EE552E7CFD9FF1200D9CFE6FFE1CFA2
:100BF000D9FF020EE126DE6ADD6ADECF5EF0DDCFD0
:100C00005FF0FD0EDBCF60F0FE0EDBCF61F05F50DA
:100C10006118E8AE02D0613404D060505E5C61506F
:100C20005F5806E20000DF2A010E01E3DB2AE5D768
:100C3000020EE15C02E2E16AE552E16EE552E7CFC5
:100C4000D9FF1200D9CFE6FFE1CFD9FFACA2FED782
:100C5000FE0EDBCFE6FF75EC0AF0E552FE0EDBCFB1
:100C6000E6FF27DDE552E552E7CFD9FF1200D9CFE5
:100C7000E6FFE1CFD9FF030EE126FF0EE76EFD0E82
:100C8000DBCF5EF0E7505E165E50A96EFC0EDB50C7
:100C9000A86EA69EA69CA684020EF2CFDBFFF29E53
:100CA000F29C550EA76EAA0EA76EA682A694020EFF
:100CB000DB50C00BDE6EDD6AF250606E616ADE50A2
:100CC00060105E6EDD5061105E50F26EA6B2FED70F
:100CD000030EE15C02E2E16AE552E16EE552E7CF24
:100CE000D9FF1200D9CFE6FFE1CFD9FF030EE126ED
:100CF000D9CFE9FFDACFEAFFFA0EDBCFEEFFFB0E2A
:100D0000DBCFEEFFFC0EDBCFEEFFDFCFE6FFFD0E0D
:100D1000DBCFE6FFFE0EDBCFE6FFA9DFE552E552B3
:100D2000E552010EDBCFE6FFE76EFD0EDBCF5EF096
:100D3000FE0EDBCF5FF0E7505E26000E5F225EC046
:100D4000E6FF5FC0E6FF93DFE552E552E552020E93
:100D5000DBCFE6FFE76EFD0EDBCF5EF0FE0EDBCFF6
:100D60005FF0E7505E26000E5F225EC0E6FF5FC0C8
:100D7000E6FF7DDFE552E552E552030EE15C02E25B
:100D8000E16AE552E16EE552E7CFD9FF1200D9CF13
:100D9000E6FFE1CFD9FF020EE126FB0EDBCFDEFF3F
:100DA000DBCFDDFFDFCFE6FFFD0EDBCFE6FFFE0E84
:100DB000DBCFE6FF5CDFE552E552E552010EDBCF0B
:100DC000E6FFE76EFD0EDBCF5EF0FE0EDBCF5FF0E1
:100DD000E7505E26000E5F225EC0E6FF5FC0E6FFC2
:100DE00046DFE552E552E552020EE15C02E2E16ABD
:100DF000E552E16EE552E7CFD9FF1200D9CFE6FF09
:100E0000E1CFD9FFE652FD0EDB50A96EA69EA69C4F
:100E1000A680A850DF6EDF50E552E552E7CFD9FF3C
:100E20001200D9CFE6FFE1CFD9FF030EE126FD0E78
:100E3000DBCFE6FFFE0EDBCFE6FFE0DFE552E5525B
:100E4000DF6E010EE76EFD0EDBCF5EF0FE0EDBCF38
:100E50005FF0E7505E26000E5F225EC0E6FF5FC0D7
:100E6000E6FFCCDFE552E552E76E010EE7CFDBFF90
:100E7000020EE76EFD0EDBCF5EF0FE0EDBCF5FF005
:100E8000E7505E26000E5F225EC0E6FF5FC0E6FF11
:100E9000B5DFE552E552E76E020EE7CFDBFFDFCFAD
:100EA0005EF0010EDBCF5FF0020EDBCF60F05EC0C4
:100EB00058F05FC059F060C05AF0030EE15C02E2E6
:100EC000E16AE552E16EE552E7CFD9FF1200D9CFD2
:100ED000E6FFE1CFD9FF020EE126FD0EDBCFE6FFF4
:100EE000FE0EDBCFE6FF8ADFE552E552DF6E010E34
:100EF000E76EFD0EDBCF5EF0FE0EDBCF5FF0E7505E
:100F00005E26000E5F225EC0E6FF5FC0E6FF76DF72
:100F1000E552E552E76E010EE7CFDBFFDECF5EF074
:100F2000DDCF5FF05EC0F3FF5FC0F4FF020EE15C57
:100F300002E2E16AE552E16EE552E7CFD9FF120025
:100F4000D9CFE6FFE1CFD9FF020EE126920EE66E81
:100F500079DEE552300EE66E75DEE5527F0EE66E06
:100F600071DEE552E80EE66E030EE66E0DDEE5522A
:100F7000E552820EE66E66DEE552300EE66E62DE09
:100F8000E552E66A5FDEE552920EE66E5BDEE55202
:100F9000300EE66E57DEE5527F0EE66E53DEE5520A
:100FA000E80EE66E030EE66EEFDDE552E552820EC8
:100FB000E66E48DEE552300EE66E44DEE552E66A45
:100FC00041DEE552920EE66E3DDEE552300EE66EF3
:100FD00039DEE5527F0EE66E35DEE552E80EE66E4E
:100FE000030EE66ED1DDE552E552820EE66E2ADE94
:100FF000E552300EE66E26DEE552E66A23DEE55265
:10100000920EE66E1FDEE552300EE66E1BDEE552F6
:101010007F0EE66E17DEE552E80EE66E030EE66E14
:10102000B3DDE552E552820EE66E0CDEE552300E7F
:10103000E66E08DEE552E66A05DEE552920EE66EE1
:1010400001DEE552330EE66EFDDDE5527F0EE66E03
:10105000F9DDE552E80EE66E030EE66E95DDE5522B
:10106000E552820EE66EEEDDE552330EE66EEADD07
:10107000E552E66AE7DDE552920EE66EE3DDE55203
:10108000330EE66EDFDDE5527F0EE66EDBDDE55208
:10109000E80EE66E030EE66E77DDE552E552820E4F
:1010A000E66ED0DDE552330EE66ECCDDE552E66A43
:1010B000C9DDE552920EE66EC5DDE552300EE66EF4
:1010C000C1DDE5527F0EE66EBDDDE552E80EE66E4F
:1010D000030EE66E59DDE552E552820EE66EB2DD94
:1010E000E552300EE66EAEDDE552E66AABDDE55266
:1010F000920EE66EA7DDE552300EE66EA3DDE552F8
:101100007F0EE66E9FDDE552E80EE66E030EE66E9C
:101110003BDDE552E552820EE66E94DDE552300E7F
:10112000E66E90DDE552E66A8DDDE552920EE66EE2
:1011300089DDE5522B0EE66E85DDE5527F0EE66E0B
:1011400081DDE552E80EE66E030EE66E1DDDE5522A
:10115000E552820EE66E76DDE5522B0EE66E72DD0E
:10116000E552E66A6FDDE552920EE66E6BDDE55202
:101170002B0EE66E67DDE5527F0EE66E63DDE5520F
:10118000E80EE66E030EE66EFFDCE552E552820ED7
:10119000E66E58DDE5522B0EE66E54DDE552E66A4A
:1011A00051DDE552920EE66E4DDDE5522B0EE66EF8
:1011B00049DDE5527F0EE66E45DDE552E80EE66E4E
:1011C000030EE66EE1DCE552E552820EE66E3ADD94
:1011D000E5522B0EE66E36DDE552E66A33DDE5526A
:1011E000920EE66E2FDDE5522B0EE66E2BDDE552FC
:1011F0007F0EE66E27DDE552E80EE66E030EE66E24
:10120000C3DCE552E552820EE66E1CDDE5522B0E84
:10121000E66E18DDE552E66A15DDE552920EE66EE1
:1012200011DDE5522E0EE66E0DDDE5527F0EE66E07
:1012300009DDE552E80EE66E030EE66EA5DCE5522A
:10124000E552820EE66EFEDCE5522E0EE66EFADC0C
:10125000E552E66AF7DCE552920EE66EF3DCE55203
:101260002E0EE66EEFDCE5527F0EE66EEBDCE5520D
:10127000E80EE66E030EE66E87DCE552E552820E5E
:10128000E66EE0DCE5522E0EE66EDCDCE552E66A48
:10129000D9DCE552920EE66ED5DCE5522B0EE66EF9
:1012A000D1DCE5527F0EE66ECDDCE552E80EE66E4F
:1012B000030EE66E69DCE552E552820EE66EC2DC94
:1012C000E5522B0EE66EBEDCE552E66ABBDCE5526B
:1012D000920EE66EB7DCE5522B0EE66EB3DCE552FD
:1012E0007F0EE66EAFDCE552E80EE66E030EE66EAC
:1012F0004BDCE552E552820EE66EA4DCE5522B0E85
:0E130000E66EA0DCE552E66A9DDCE5521FD6E3
:02130E001E0EB1
:10131000F66E000EF76E000EF86E00010900F55033
:10132000C06F0900F550C16F03E1C06701D03DD027
:101330000900F550BB6F0900F550BC6F0900F5506E
:10134000BD6F09000900F550E96E0900F550EA6E1D
:10135000090009000900F550BE6F0900F550BF6F84
:1013600009000900F6CFC2F0F7CFC3F0F8CFC4F000
:10137000BBC0F6FFBCC0F7FFBDC0F8FF0001BE5305
:1013800002E1BF5307E00900F550EE6EBE07F8E238
:10139000BF07F9D7C2C0F6FFC3C0F7FFC4C0F8FF4C
:0C13A0000001C007000EC15BBFD71200A7
:0413AC000F01939802
:1013B00081880F01938A818A12000001FF0EE3CF1A
:1013C000C5F0090EC66FD8900F01E9EF09F00001D2
:1013D000C5330F01D8A08198D8B0818809EC00F0FE
:1013E0000001C62FE7EF09F00F01818809EC00F03A
:1013F00012000001080EC66F0F0181BAFDEF09F05F
:1014000007EC00F00F0181BAFDEF09F008EC00F0E5
:101410000F0181AAD89081BAD8800001C533C62FA8
:1014200006EF0AF008EC00F007EC00F00000000105
:04143000C551120090
:0C143400D9CFE6FFDACFE6FFE1CFD9FF09
:10144000E2CFDAFFAC6AAB6AFD0EDBB0AC88DBA2A0
:1014500002D0AC8CAB8CDBB4AC8EDBA602D0AB88FC
:1014600001D0AB8ADBA802D0AC8401D0AC949E98AA
:10147000DBAC02D09D8A01D09D9A9E9ADBAE02D051
:101480009D8801D09D98FB0EDB50AF6EAC8AAB8E71
:10149000949C948EAC50100B04E0AC50800B01E196
:0E14A000948CE552E5CFDAFFE7CFD9FF1200BA
:0214AE00D9CF94
:1014B000E6FFE1CFD9FFFD0EDBCFE9FFFE0EDBCF6C
:1014C000EAFFEF50E66EDDEC09F0E552FD0EDBCFF2
:1014D000E9FFDB2AFE0EDBCFEAFF01E3DB2AEF5058
:0A14E000EAE1E552E7CFD9FF120060
:0614EA00D9CFE6FFDACFC6
:1014F000E6FFE1CFD9FFE2CFDAFFACAC04D0AC908D
:101500000001C7B3AC80FD0EDB50AD6EE552E5CFF8
:08151000DAFFE7CFD9FF12005A
:08151800FF0EE350626E480E65
:1015200001D04C0EE76EE72EFED7E76AE72EFED716
:08153000622EF7D70000120043
:08153800000EF36E00EE00F05E
:10154000020E01D81200EA6002D0EE6AFCD7F35016
:08155000E9601200EE6AFCD70D
:0815580011EE00F021EE00F09D
:10156000F86A5D9C87EC09F003EC00F016EC00F0E3
:04157000FBD7120093
:0C1574000000100020003000000000000B
:101580000000000000000000000000000001020355
:101590000405060708090A0B0C0D0E0F01010101D5
:0215A000010147
:020000040030CA
:01000100C935
:010002000FEE
:010003001EDE
:010005008179
:010006008079
:010008000FE8
:01000900C036
:01000A000FE6
:01000B00E014
:01000C000FE4
:01000D0040B2
:0200000400F00A
:1000000000004000000000000000000000000000B0
:100010000201020304050607080910111213141542
:06002000010101010101D4
:00000001FF
