:020000040000FA
:060000004FEF07F01200B3
:020006001200E6
:060008001EEF03F01200E0
:02000E001200DE
:0400100012001200C8
:06001800D4EF03F012001A
:02001E000100DF
:0C002000D00E0000800000002E00000048
:04002C00D9CFE6FF43
:10003000E1CFD9FF0B0EE126D390D392D39E9290BD
:10004000020EDB6A030EDB6A020EDBCF5EF0030EEC
:10005000DBCF5FF0D8905F5004E6040E5E5C000ECC
:100060005F5827E2020EDBCFE9FF030EDBCFEAFF8A
:10007000460EE926000EEA22EF6A020EDBCFE9FF08
:10008000030EDBCFEAFFB40EE926000EEA22EF6A88
:10009000020EDBCFE9FF030EDBCFEAFFB00EE9264D
:1000A000000EEA22EF6A020EDB2A030E01E3DB2ACE
:1000B000CBD7000EF36E080EF3CFDBFF100EF36EFE
:1000C000090EF3CFDBFF200EF36E0A0EF3CFDBFF3A
:1000D000DE6ADD6ADECF5EF0DDCF5FF0D8905F5084
:1000E00004E6100E5E5C000E5F586BE2080EDB50FB
:1000F000606E616ADE5060245E6EDD5061205F6E6E
:100100005EC0E6FF5FC0E6FF22EC05F0E552E55277
:10011000E66EDECFE9FFDDCFEAFF880EE926000EAE
:10012000EA22E552E750EF6E090EDB50606E616A1D
:10013000DE5060245E6EDD5061205F6E5EC0E6FFC3
:100140005FC0E6FF22EC05F0E552E552E66EDECF39
:10015000E9FFDDCFEAFF980EE926000EEA22E5521C
:10016000E750EF6EDECF5EF0DDCF5FF0D8905F50EE
:1001700004E6060E5E5C000E5F581EE20A0EDB50BF
:10018000606E616ADE5060245E6EDD5061205F6EDD
:100190005EC0E6FF5FC0E6FF22EC05F0E552E552E7
:1001A000E66EDECFE9FFDDCFEAFFA80EE926000EFE
:1001B000EA22E552E750EF6EDF2A010E01E3DB2A67
:1001C00089D7526A0F0EC16EC00ED56EF184910EA2
:1001D000CD6E9F80910EB16EA2827F0ECA6E9F92ED
:1001E0009D82C80E506E516AC80E4E6E4F6A9F8A2D
:1001F0004F0EE66EE66A7C0EE66EBDEC06F0E5524A
:10020000E552E552816A070E936E836A956A806AA9
:10021000F00E926EC4EC05F0F288F086F08CF08857
:10022000F08EF19CF19AF198D08EF28CF28E020E43
:10023000DB6A030EDB6A020EDBCF5EF0030EDBCF60
:100240005FF0D8905F5004E6040E5E5C000E5F58CD
:1002500001E3C3D1020EDBCFE9FF030EDBCFEAFFE0
:10026000D890E936EA36800EE926000EEA22EECF73
:10027000AEF0EDCFAFF00001BA6B4B6A4C6AE00E06
:100280004D6E04004B504C104D1001E19AD14B2A99
:10029000000E4C22000E4D22020EDBCFE9FF030EB2
:1002A000DBCFEAFFB40EE926000EEA22EFCF5EF0C4
:1002B000020EDBCFE9FF030EDBCFEAFF460EE92695
:1002C000000EEA22EF505E5C01E172D1020EDBCF3C
:1002D000E9FF030EDBCFEAFFB40EE926000EEA22A7
:1002E000EF500001EA6AAE25E96EAF51EA22EF5005
:1002F0004A6E020EDBCFE9FF030EDBCFEAFFB40E3E
:10030000E926000EEA22EF2A020EDBCFE9FF030EF8
:10031000DBCFEAFFB40EE926000EEA22EF50100808
:100320000BE1020EDBCFE9FF030EDBCFEAFFB40ED9
:10033000E926000EEA22EF6A4AAE65D0F80E4A5C62
:1003400005E34A50E66EA7DAE55258D00F0E4A147C
:10035000EA6A980FE96E000EEA22EF50E66ED95075
:10036000060FE96EDACFEAFFE552E750EE6EED6A6E
:10037000F00E4A14606E616A060EDB5060105E6E0D
:10038000070EDB5061105F6E5E504A6E020EDBCFCF
:10039000E9FF030EDBCFEAFFB00EE926000EEA22EA
:1003A0004AC0EFFF020EDBCFE9FF030EDBCFEAFF0F
:1003B000B00EE926000EEA22EFCF5EF0A00E5E5CE2
:1003C00013E34A380F0BF60F0001B86F0001B85164
:1003D000EA6AA80FE96E000EEA22EF0404E14A502F
:1003E000E66E59DAE55204D04A50E66E54DAE55228
:1003F0004A50E66EFDD8E5520001BA6F4B6A4C6A6E
:10040000E00E4D6ED4D0020EDBCFE9FF030EDBCF42
:10041000EAFFB00EE926000EEA22EF50F00805E1EF
:100420004A50E66E38DAE55257D00001BA5154E12D
:10043000020EDBCFE9FF030EDBCFEAFFB00EE926A9
:10044000000EEA22EF50E66ED3D8E5520001BA6FF3
:10045000020EDBCFE9FF030EDBCFEAFFB00EE92689
:10046000000EEA22EFCF5EF0A00E5E5C27E3020EE4
:10047000DBCFE9FF030EDBCFEAFFB00EE926000E6B
:10048000EA22EF380F0BF60F0001B86F0001B851E8
:10049000EA6AA80FE96E000EEA22EF040EE1020EEE
:1004A000DBCFE9FF030EDBCFEAFFB00EE926000E3B
:1004B000EA22EF50E66EEFD9E5520ED0020EDBCF06
:1004C000E9FF030EDBCFEAFFB00EE926000EEA22B9
:1004D000EF50E66EE0D9E5520001BA07020EDBCF1D
:1004E000E9FF030EDBCFEAFFB00EE926000EEA2299
:1004F000EFCF5EF0A00E5E5C1DE3020EDBCFE9FFE6
:10050000030EDBCFEAFFB00EE926000EEA22EF3839
:100510000F0BF60F0001B86F0001B851EA6AA80F7F
:10052000E96E000EEA22EF0404E14A50E66EB3D908
:10053000E55239D0020EDBCFE9FF030EDBCFEAFF35
:10054000B00EE926000EEA22EF500F0B0001B96F42
:10055000020EDBCFE9FF030EDBCFEAFFB00EE92688
:10056000000EEA22EF50900B900819E10001BA51F9
:1005700016E10001B951EA6A880FE96E000EEA221D
:10058000EFCF5EF04A50D8805E5409E20001B951C5
:10059000EA6A880FE96E000EEA22EF504A6E4A506E
:1005A000E66E79D9E5524B6A4C6AE00E4D6E08D082
:1005B0000001BA5104E14B6A4C6A4D6A01D0040053
:1005C00061D60001BA5103E0E66865D9E552020E32
:1005D000DB2A030E01E3DB2A2ED629D60B0EE15CC3
:1005E00002E2E16AE552E16EE552E7CFD9FF12007F
:1005F000D9CFE6FFE1CFD9FFFE0EDB50F20A15E0BE
:10060000020A15E0010A13E0FE0EDB50F00BC00AEF
:100610000EE0100A0CE0500A08E0100A06E0300A6A
:1006200004E0100A02E0500A04E1020E03D0010EB9
:1006300001D0000EE552E7CFD9FF1200DACFE4FF78
:10064000E2CFDAFFE9CFE4FFEACFE4FFE652F2506F
:10065000100B0CE0F250020B09E0F298F292080E37
:10066000406E436A340ED66EF294F28AF050080B54
:100670000DE0F050010B0AE0F096F090080E416E8C
:10068000446ACF683B0ECE6E9E909D80F050100B5A
:100690000DE0F050020B0AE0F098F092080E426E66
:1006A000456AB368400EB26EA192A082F250200B50
:1006B00021E0F250040B1EE0F294760ED66E434217
:1006C00081B0438E402E7AEF03F04650EA6A000F65
:1006D000E96E000EEA2243C0EFFF462A100E465C88
:1006E00001E1466AF292F288F29A020E465C02E159
:1006F000020E466E9D50010B1EE09E50010B1BE04A
:100700009E90FF0ECF6E780ECE6E444281B2448E24
:10071000412E9BEF03F04750EA6A100FE96E000E7E
:10072000EA2244C0EFFF472A100E475C01E1476A06
:10073000F090F0869D90A050020B1EE0A150020B9D
:100740001BE0A192FF0EB36E7B0EB26E454281B4E8
:10075000458E422EBCEF03F04850EA6A200FE96E46
:10076000000EEA2245C0EFFF482A100E485C01E166
:10077000486AF092F088A0929EAA0ED09E9A4950A4
:10078000EA6A300FE96E000EEA22AECFEFFF492A87
:10079000100E495C01E1496AE552E5CFEAFFE5CF79
:1007A000E9FFE5CFDAFF1100DACFE4FFE6529EA2BF
:1007B0000CD09E924E06000E4F5A4E504F1005E13F
:1007C00050C04EF051C04FF08C70E552E5CFDAFFCB
:1007D0001100D9CFE6FFE1CFD9FF020EE126DE6A94
:1007E000DD6ADECF5EF0DDCF5FF0FD0EDBCF60F0C7
:1007F000FE0EDBCF61F05F506118E8AE02D06134CD
:1008000004D060505E5C61505F580AE20A0EE66EEA
:100810002FEC07F0E552DF2A010EE3E3DB2AE1D7F4
:10082000020EE15C02E2E16AE552E16EE552E7CFD9
:10083000D9FF1200D9CFE6FFE1CFD9FF020EE126A2
:10084000DE6ADD6ADECF5EF0DDCF5FF0FD0EDBCF6E
:1008500060F0FE0EDBCF61F05F506118E8AE02D0B1
:10086000613404D060505E5C61505F580AE2010E52
:10087000E66E5DEC07F0E552DF2A010EE3E3DB2ACA
:10088000E1D7020EE15C02E2E16AE552E16EE55277
:10089000E7CFD9FF1200D9CFE6FFE1CFD9FFACA255
:1008A000FED7FE0EDBCFE6FF18EC07F0E552E5526F
:1008B000E7CFD9FF1200D9CFE6FFE1CFD9FF030E72
:1008C000E126FF0EE76EFD0EDBCF5EF0E7505E1611
:1008D0005E50A96EFC0EDB50A86EA69EA69CA68458
:1008E000020EF2CFDBFFF29EF29C550EA76EAA0E0F
:1008F000A76EA682A694020EDB50C00BDE6EDD6AE8
:10090000F250606E616ADE5060105E6EDD50611004
:100910005E50F26EA6B2FED7030EE15C02E2E16A1F
:10092000E552E16EE552E7CFD9FF1200D9CFE6FFDD
:10093000E1CFD9FF030EE126D9CFE9FFDACFEAFFF5
:10094000FA0EDBCFEEFFFB0EDBCFEEFFFC0EDBCFB4
:10095000EEFFDFCFE6FFFD0EDBCFE6FFFE0EDBCFC7
:10096000E6FFA9DFE552E552E552010EDBCFE6FFD7
:10097000E76EFD0EDBCF5EF0FE0EDBCF5FF0E750E3
:100980005E26000E5F225EC0E6FF5FC0E6FF93DFDB
:10099000E552E552E552020EDBCFE6FFE76EFD0EB3
:1009A000DBCF5EF0FE0EDBCF5FF0E7505E26000E81
:1009B0005F225EC0E6FF5FC0E6FF7DDFE552E552E5
:1009C000E552030EE15C02E2E16AE552E16EE552B6
:1009D000E7CFD9FF1200D9CFE6FFE1CFD9FF020E52
:1009E000E126FB0EDBCFDEFFDBCFDDFFDFCFE6FF57
:1009F000FD0EDBCFE6FFFE0EDBCFE6FF5CDFE55250
:100A0000E552E552010EDBCFE6FFE76EFD0EDBCFD0
:100A10005EF0FE0EDBCF5FF0E7505E26000E5F2239
:100A20005EC0E6FF5FC0E6FF46DFE552E552E552F5
:100A3000020EE15C02E2E16AE552E16EE552E7CFC7
:100A4000D9FF1200D9CFE6FFE1CFD9FFE652FD0E64
:100A5000DB50A96EA69EA69CA680A850DF6EDF5034
:100A6000E552E552E7CFD9FF1200D9CFE6FFE1CF3B
:100A7000D9FF030EE126FD0EDBCFE6FFFE0EDBCF36
:100A8000E6FFE0DFE552E552DF6E010EE76EFD0E98
:100A9000DBCF5EF0FE0EDBCF5FF0E7505E26000E90
:100AA0005F225EC0E6FF5FC0E6FFCCDFE552E552A5
:100AB000E76E010EE7CFDBFF020EE76EFD0EDBCF28
:100AC0005EF0FE0EDBCF5FF0E7505E26000E5F2289
:100AD0005EC0E6FF5FC0E6FFB5DFE552E552E76EB8
:100AE000020EE7CFDBFFDFCF5EF0010EDBCF5FF062
:100AF000020EDBCF60F05EC058F05FC059F060C0FE
:100B00005AF0030EE15C02E2E16AE552E16EE55261
:100B1000E7CFD9FF1200D9CFE6FFE1CFD9FF020E10
:100B2000E126FD0EDBCFE6FFFE0EDBCFE6FF8ADF20
:100B3000E552E552DF6E010EE76EFD0EDBCF5EF093
:100B4000FE0EDBCF5FF0E7505E26000E5F225EC038
:100B5000E6FF5FC0E6FF76DFE552E552E76E010E85
:100B6000E7CFDBFFDECF5EF0DDCF5FF05EC0F3FFEF
:100B70005FC0F4FF020EE15C02E2E16AE552E16E61
:100B8000E552E7CFD9FF1200D9CFE6FFE1CFD9FF79
:100B9000020EE126FA0EDE6EDD6A83908392DECFCE
:100BA000E6FFDDCFE6FF15DEE552E5528390838256
:100BB000DECFE6FFDDCFE6FF0CDEE552E5528380B7
:100BC0008392DECFE6FFDDCFE6FF03DEE552E5529E
:100BD00083908382DECFE6FFDDCFE6FFFADDE552CC
:100BE000E55283808392DECFE6FFDDCFE6FFF1DDC5
:100BF000E552E55283908392DECFE6FFDDCFE6FF3C
:100C0000E8DDE552E55283808382DECFE6FFDDCF6B
:100C1000E6FFDFDDE552E55283908392DECFE6FF0B
:100C2000DDCFE6FFD6DDE552E55283808382DECF5D
:100C3000E6FFDDCFE6FFCDDDE552E552838083920E
:100C4000020EE15C02E2E16AE552E16EE552E7CFB5
:040C5000D9FF1200B6
:0C0C54001E0EF66E000EF76E000EF86E1D
:100C600000010900F550C06F0900F550C16F03E1A4
:100C7000C06701D03DD00900F550BB6F0900F550A9
:100C8000BC6F0900F550BD6F09000900F550E96E11
:100C90000900F550EA6E090009000900F550BE6F21
:100CA0000900F550BF6F09000900F6CFC2F0F7CF79
:100CB000C3F0F8CFC4F0BBC0F6FFBCC0F7FFBDC0A7
:100CC000F8FF0001BE5302E1BF5307E00900F550F1
:100CD000EE6EBE07F8E2BF07F9D7C2C0F6FFC3C089
:100CE000F7FFC4C0F8FF0001C007000EC15BBFD70B
:020CF0001200F0
:0E0CF2000F01939881880F01938A818A120066
:100D00000001FF0EE3CFC5F0090EC66FD8900F01AA
:100D10008CEF06F00001C5330F01D8A08198D8B040
:100D2000818809EC00F00001C62F8AEF06F00F0160
:100D3000818809EC00F012000001080EC66F0F0157
:100D400081BAA0EF06F007EC00F00F0181BAA0EF26
:100D500006F008EC00F00F0181AAD89081BAD88083
:100D60000001C533C62FA9EF06F008EC00F007EC30
:0A0D700000F000000001C551120060
:060D7A00D9CFE6FFDACF3D
:100D8000E6FFE1CFD9FFE2CFDAFFAC6AAB6AFD0E36
:100D9000DBB0AC88DBA202D0AC8CAB8CDBB4AC8E0D
:100DA000DBA602D0AB8801D0AB8ADBA802D0AC8432
:100DB00001D0AC949E98DBAC02D09D8A01D09D9A64
:100DC0009E9ADBAE02D09D8801D09D98FB0EDB5031
:100DD000AF6EAC8AAB8E949C948EAC50100B04E03A
:100DE000AC50800B01E1948CE552E5CFDAFFE7CF00
:040DF000D9FF120015
:0C0DF400D9CFE6FFE1CFD9FFFD0EDBCF29
:100E0000E9FFFE0EDBCFEAFFEF50E66E80EC06F066
:100E1000E552FD0EDBCFE9FFDB2AFE0EDBCFEAFF5A
:100E200001E3DB2AEF50EAE1E552E7CFD9FF1200F8
:100E3000D9CFE6FFDACFE6FFE1CFD9FFE2CFDAFF85
:100E4000ACAC04D0AC900001C7B3AC80FD0EDB505D
:0E0E5000AD6EE552E5CFDAFFE7CFD9FF120015
:020E5E00FF0E85
:100E6000E350626E480E01D04C0EE76EE72EFED7BF
:0E0E7000E76AE72EFED7622EF7D700001200C9
:020E7E00000E64
:100E8000F36E00EE00F0020E01D81200EA6002D00C
:0E0E9000EE6AFCD7F350E9601200EE6AFCD760
:020E9E0011EE53
:100EA00000F021EE00F0F86A5D9C2AEC06F003ECFD
:0A0EB00000F016EC00F0FBD7120072
:060EBA00FF0EE350E84EBC
:100EC0001200000000D000D000D0E82EFAD71200A7
:100ED00000001000200030000000000000000000B2
:100EE00000000000000000000001020304050607E6
:0E0EF00008090A0B0C0D0E0F01010101010192
:020000040030CA
:01000100C638
:010002000FEE
:010003001EDE
:010005008179
:0100060000F9
:010008000FE8
:01000900C036
:01000A000FE6
:01000B00E014
:01000C000FE4
:01000D0040B2
:0200000400F00A
:1000000000004000000000000000000000000000B0
:100010000201020304050607080910111213141542
:06002000010101010101D4
:00000001FF
